:400000000040002011000000E9050000E905000080B500AF00F016FB80B584B000AF021CFB1D1A70204A3B1C0B3312781A701F4A3B1C0A3312781A700423013BFB6018E0DC
:400040001B4B1868391C0B31FA68131C5B009B18C3185B780B70164B1868391C0A31FA68131C5B009B18C3189B780B70FB68013BFB60FB68002B0ADB0D4B1968FA68131CF1
:400080005B009B185B5CFA1D12789A42D8D9094B3A1C0B3212781A60074B3A1C0A3212781A60BD4604B080BDCCF1FF0FCDF1FF0FD00000201CFF0B4020FF0B4080B500AF4B
:4000C0002D4B12221A603020FFF7A6FF2B4B2C4A1278D2B21A60052000F01EFE294B35221A6000F015FDFA235B00181C00F0F0FD012000F01DFD244B244A1A60244B8022E7
:40010000D2051A60234B244A1A60244B234A126808218A431A60FA23DB00181C00F0B2FC1F4B181C00F0F8FD1E4BC02292001A601D4B1E4A1A601E4BF02212011A601A4BF7
:400140001C4A1A601C4BC82252011A60164B1B4A1A601B4B822212061A601A4B8022D2021A60194B40221A60184B41221A60184B42221A60BD4680BD3000104028FF0B405D
:40018000FDF1FF0F2CFF0B4004010B40060000800C020B407C002E406A2D00006CF02E40DC050000000301400000014040FF00800403014041FF00800803014042FF008019
:4001C00008010B4000010B402C010140180101400401014080B582B000AF72B6424B00221A60FB1D00221A7023E0FB1D1A78131C5B009B185B003D4A9B183B603B681A78D7
:40020000597809020A43997809040A43DB781B0613431A1C3B6819795B791B020B439BB2101C191C00F092FAFB1D1A78FB1D01321A70FB1D1B78012BD7D92D4A2D4B101C6B
:40024000191C00F093FA2C4B2C4A1A602C4B2D4A1A602D4B0F221A602C4B2D4A1A602D4B67221A602C4B2D4A1A602D4B27221A602C4B40221A602C4B40221A602B4B99227D
:4002800012041A602A4B9C2212041A60294B992212041A60284B802292051A60274B992212041A60264B264A1278D2B202210A43D2B21A70234B234A1278D2B20C218A43F9
:4002C000D2B204210A43D2B21A701D4B1C4A1278D2B216210A43D2B21A70FFF7EFFE00F085FABD4602B080BD6CF02E405C230000682300008423000000000240333300EE37
:4003000000010240000099030000044008000440B60DD800000104400801044000101B0018010440000304401803044000500F4008500F4010500F4018500F4030500F4078
:4003400000700F4001700F4010B5064C2378002B07D1054B002B02D0044800E000BF0123237010BD4801002000000000A022000008B5084B002B03D00748084900E000BF15
:4003800007480368002B03D0064B002B00D0984708BDC04600000000A02200004C010020C80000200000000080B500AF224B1B78052B39D89A00214BD3181B689F4600F00A
:4003C00093FA031CAA2B03D11B4B02221A702CE02BE000F089FA031CEE2B03D1164B03221A7022E021E000F07FFA031CDAB2124B5A70114B04221A7017E000F075FA031C2F
:40040000DAB20D4B9A700C4B05221A700DE000F06BFA031CDAB2084BDA70074B01221A70054B01221A7100E0C046054B044A12681A60BD4680BDC04678010020A422000022
:40044000C00F244080B500AF62B6524B01221A7000F030FA00F036FE4F4B181C00F044FE4E4B181C01F01CF800F0F4FC00F08EFD00F066FC474B1B79012B00D089E0454B2B
:4004800000221A71434B5B78012B18D1414B9B781B02181C642100F0F1FE031CDBB2181C00F0C8FC00F024FD00F0BEFD00F084FC384B9B783A4A101C191C00F075FF354BA6
:4004C0005B78022B1BD1334B9B781B02181C642100F0D4FE031CDBB2181C00F037FD00F07BFC00F0A1FD002000F040FD00F0F0FC284B9B782B4A101C191C00F055FF254BB5
:400500005B78032B1BD1234B9B781B02181C642100F0B4FE031CDBB2181C00F027FD00F05BFC00F081FD002000F010FD00F0D0FC184B9B781C4A101C191C00F035FF154B92
:400540005B78042B25D1134B9B781B02181C642100F094FE031CDBB2181C00F0A3FD0D4B9B781B02181C642100F088FE031CDBB2181C00F087FD00F02FFC00F0B9FC00F08F
:4005800043FD044B9B78094A101C191C00F00CFF70E76FE778010020A9030000BC220000E422000004230000202300003C23000080B586B000AFF860B9607A6000237B61E7
:4005C00009E0BB685A1CBA601B78181C00F09CF97B6901337B617A697B689A42F1DB7B68181CBD4606B080BD80B500AFFEE7C04680B584B000AF7860104B1A687B68D3183A
:400600001A1C0F4BD21A8023DB009A4209DC0B4B1B68FB60094B1A687B68D218074B1A6007E000F08DFE031C0C221A6001235B42FB60FB68181CBD4604B080BDCC000020A0
:400640008801002080B586B000AF224B7B61224B3B61204B7B6135E03B691B68FB603B695B68BB603B699B683B6000237B600CE0FB681A68BB681A60BB680433BB60FB687F
:400680000433FB607B6804337B607A683B689A42EED13B69DB683B6000237B6008E0BB6800221A60BB680433BB607B6804337B607A683B689A42F2D13B6910333B617B6977
:4006C000013B7B617B69002BC6D100F03FFEFFF7B9FEFEE7010000008025000080B582B000AF154B144A126801218A431A6000237B600FE07B68032B04D8104B7A68920077
:40070000D35800E00E4B0F4A796889008B507B6801337B607B682F2BECD9FFF75BFD0A4B00221A60044B044A126801210A431A60BD4602B080BDC04600001040000000003C
:40074000E905000000000020C000002080B582B000AF786039607A683B68101C00211A1C00F01AFEBD4602B080BDC04680B586B000AF7860396000233B6100237B612EE0A5
:400780007B699B007A68D3181B68BB603B1C0F33BA681A70BB68FF229343BB6017E03B695B003A68D3181B781A1CBB68D3183A69520039688A1852781A703B6901333B617B
:4007C0003B1C0F331A783B1C0F33013A1A703B1C0F331B78002BE2D17B6901337B617B69062BCDD9BD4606B080BDC04680B500AF0E4B03221A600E4B802212061A600D4BFA
:4008000003221A600C4B822252001A600B4B802212051A600A4B40221A600A4B00221A60012000F011F8BD4680BDC0463000304000003140300031408000314000003A402A
:4008400000033A40000E3F4080B584B000AF021CFB1D1A700B4B1B68FB60FB1D1B78002B05D0FB68802212061343FB6003E0FB685B005B08FB60034BFA681A60BD4604B0A9
:4008800080BDC04680033A4080B500AF00F052F8BD4680BD80B500AF054B054A1268802109060A431A6000F017F8BD4680BDC0460000244080B500AF064B1B78002B04D1B5
:4008C000FFF7E2FF034B01221A70FFF7E3FFBD4680BDC0466401002080B500AF092000F0C1F9BD4680BDC04680B582B000AF00237B60044B1B687B607B68181CBD4602B0F9
:4009000080BDC0464003244080B582B000AF7860C046064B1A681F231340082BF9D0044B7A681A60BD4602B080BDC046080224404002244080B500AF1E4B1F4A1A601F4B24
:4009400000221A601E4B01221A601E4B1E4A1A601E4B07221A601E4B00221A601D4B01221A601D4B184A1A601C4B00221A601C4B04221A60092000F08BF90920032100F04C
:400980001DF9184B0920191C00F0F2F8164B00221A60164B00221A60154B00221A60154B00221A60144B04221A60144B00221A60BD4680BD000024400F0000024000244041
:4009C000480024400003244007000080040324401003244044002440000224400402244050002440A5110000880E2440C80E2440480F2440080F2440C80F2440880F2440F9
:400A000080B500AF0B4B0B4A126801218A431A60094B094A126830218A4310210A431A60054B054A126807218A4301210A431A60BD4680BD00F02E4000FF2E4080B500AF27
:400A40000E4B0E4A126802218A431A600C4B0C4A126807218A4302210A431A60084B084A126830218A4320210A431A60034B034A126801210A431A60BD4680BD00F02E40FA
:400A800000FF2E4080B584B000AF78600023FB60154B154A126801210A431A60134B144A1A60144B134A1268802109020A431A607B68002B13D01023FB600DE0012000F0DD
:400AC0002BF900F019F8031C002B02D00023FB6005E07B68013B7B607B68002BEED1FB68181CBD4604B080BD60F02E4078002E400220000010002E4080B500AF034B1A6808
:400B000001231340181CBD4680BDC0460C002E4080B500AFFFF774FF044B044A1268802109060A431A60BD4680BDC04600F02E4080B584B000AF78600C4B1A68012313408B
:400B4000FB607B68002B02D0012B03D005E0FFF757FF06E0FFF772FF03E0002000F0AEF8C046FB68181CBD4604B080BD00F02E4080B584B000AF021C3960FB1D1A70802321
:400B80009B05FB60FB1D1B781F2B02D9002000F095F8FB1D1B7810339B00FA68D3181B68BB60FB1D1B7810339B00FA68D3183A681A60BB68181CBD4604B080BD90B587B0A0
:400BC00000AF0A1CFB1D011C1970BB1D1A70BB1D1B78032B02D9002000F070F8FB1D1B781F2B02D9002000F069F8FB1D1A7803231340DB0006337B613C1C133400F0E9FA4E
:400C0000031C2370FB1D1B789B08DBB29B0014495B181B68FB607B690322111C99400B1CDA43FB681340FB60BB1D1A787B69111C99400B1CFA681343FB60FB1D1B789B089E
:400C4000DBB29B00064A9B18FA681A603B1C13331B78181C00F0C1FABD4607B090BDC04600E400E080B582B000AF021CFB1D1A70064BFA1D11781F220A400121081C904025
:400C8000021C1A60BD4602B080BDC04600E100E080B582B000AF021CFB1D1A70064BFA1D11781F220A400121081C9040021C1A60BD4602B080BDC04680E100E080B582B043
:400CC00000AF021CFB1D1A7001BEBD4602B080BD80B582B000AF786008E00C4B1B68181C00F06EFA7B680A4A9B187B607A6880231B029A42F1D8074B1B687A685343181C0B
:400D000000F05EFABD4602B080BDC046E00000200080FFFFD800002080B582B000AF021CBB1D1A80BB1D1B88044A12785343181C00F046FABD4602B080BDC046DC00002016
:400D400080B500AF064B1B78002B04D100F00AF8034B01221A7000F02FF8BD4680BDC0466C01002080B582B000AF114B1B78DAB2FB1D3F218A431A700D4BFA1D1278092151
:400D80000A43D2B21A700B4B0A4A1278D2B201210A43D2B21A70FF2000F02CF8FF2000F039F87F2000F046F8BD4602B080BDC04672000F4092000F4080B500AF054B054A46
:400DC0001278D2B2802149420A43D2B21A70BD4680BDC04672000F4080B500AF044B044A1278D1B27F220A40D2B21A70BD4680BD72000F4080B582B000AF021CFB1D1A70F9
:400E0000034BFA1D12781A70BD4602B080BDC04602000F4080B582B000AF021CFB1D1A70034BFA1D12781A70BD4602B080BDC04642000F4080B582B000AF021CFB1D1A7042
:400E4000034BFA1D12781A70BD4602B080BDC04622000F4080B500AF064B1B78002B04D100F00AF8034B01221A7000F031F8BD4680BDC0466D01002080B582B000AF124B7B
:400E80001B78DAB2FB1D3F218A431A700E4BFA1D127809210A43D2B21A700C4B0B4A1278D2B201210A43D2B21A70FF2000F02EF8FF2000F03BF87F2000F048F83F2000F0F9
:400EC00055F8BD4602B080BD71000F4091000F4080B500AF054B054A1278D2B2802149420A43D2B21A70BD4680BDC04671000F4080B500AF044B044A1278D1B27F220A407C
:400F0000D2B21A70BD4680BD71000F4080B582B000AF021CFB1D1A70034BFA1D12781A70BD4602B080BDC04601000F4080B582B000AF021CFB1D1A70034BFA1D12781A70BD
:400F4000BD4602B080BDC04641000F4080B582B000AF021CFB1D1A70034BFA1D12781A70BD4602B080BDC04621000F4080B582B000AF021CFB1D1A70034BFA1D12781A70E3
:400F8000BD4602B080BDC04631000F4080B500AF064B1B78002B04D100F00AF8034B01221A7000F031F8BD4680BDC0466E01002080B582B000AF124B1B78DAB2FB1D3F210C
:400FC0008A431A700E4BFA1D127809210A43D2B21A700C4B0B4A1278D2B201210A43D2B21A70FF2000F02EF8FF2000F03BF87F2000F048F83F2000F055F8BD4602B080BD10
:4010000070000F4090000F4080B500AF054B054A1278D2B2802149420A43D2B21A70BD4680BDC04670000F4080B500AF044B044A1278D1B27F220A40D2B21A70BD4680BD2E
:4010400070000F4080B582B000AF021CFB1D1A70034BFA1D12781A70BD4602B080BDC04600000F4080B582B000AF021CFB1D1A70034BFA1D12781A70BD4602B080BDC046D4
:4010800040000F4080B582B000AF021CFB1D1A70034BFA1D12781A70BD4602B080BDC04620000F4080B582B000AF021CFB1D1A70034BFA1D12781A70BD4602B080BDC046A4
:4010C00030000F4080B500AF00F062F8054B181C00F020F8032000F029F800F04FF8BD4680BDC0460D11000080B582B000AF786000F04EF87B68181C00F00CF8032000F0A6
:4011000015F800F03BF8BD4602B080BD80B500AFBD4680BD80B582B000AF7860024B7A685A66BD4602B080BD0000002090B585B000AF021CFB1D1A700E23FB603C1C0B346E
:4011400000F047F8031C23700A4B0A4A11680A4A1140FA1D1078FA68041C9440221C0A431A603B1C0B331B78181C00F036F8BD4605B090BD08E400E0FF3FFFFF80B500AF62
:40118000024B802292001A60BD4680BD00E100E080B500AF024B802292001A60BD4680BD80E100E080B500AF044B1B68002B02D0024B1B689847BD4680BDC04668010020A2
:4011C0000230800803D00138FDD1C046C046C0467047EFF3108072B6704780F310887047002934D00123002210B488422CD301242407A14204D2814202D209011B01F8E7DA
:40120000E400A14204D2814202D249005B00F8E7884201D3401A1A434C08A04202D3001B5C0822438C08A04202D3001B9C082243CC08A04202D3001BDC082243002803D05A
:401240001B0901D00909E3E7101C10BC7047002801D00020C04307B4024802A14018029003BDC046D90000000029F0D003B5FFF7B9FF0EBC4243891A1847C046002941D0C1
:4012800010B4041C4C40A44601230022002900D54942002800D5404288422CD301242407A14204D2814202D209011B01F8E7E400A14204D2814202D249005B00F8E7884297
:4012C00001D3401A1A434C08A04202D3001B5C0822438C08A04202D3001B9C082243CC08A04202D3001BDC082243002803D01B0901D00909E3E7101C6446002C00D54042F1
:4013000010BC7047002806D003DB0020C043400801E08020000607B4024802A14018029003BDC046190000000029EBD003B5FFF7A7FF0EBC4243891A1847C0467047C0469F
:40134000014B18687047C0464401002070B50E4B0E4D0024ED1AAD101E1CAC4204D0A300F35898470134F8E701F0F8F8084B094D0024ED1AAD101E1CAC4204D0A300F35885
:4013800098470134F8E770BD68250000682500006825000070250000031C8218934202D019700133FAE770470FB40B4B13B51C68002C05D0A369002B02D1201C00F008FD7B
:4013C00005ABA168201C049A019300F09BF816BC08BC04B01847C0464401002070B5051C0E1C002804D08269002A01D100F0F0FCAC68A3891A0702D52369002B19D1281CE3
:40140000211C00F069FB002813D00120404245E03178002B1BDAA269934211DA281C221C00F002FB013043425841C0B20028ECD10136A3683278013BA360002AE8D10CE0A5
:4014400023681970236819780A2903D1E6E722681170236801332360EAE7002B17DAA269934208DB22680A231370236819780A2911D1281C01E0281C0A21221C00F0D4FA70
:40148000013043425841C0B2002806D0BDE722680A2313702368013323600A2070BD000008B5034B011C1868FFF798FF08BDC04644010020936810B5013B9360002B05DA98
:4014C0009469A34208DBCBB20A2B05D01368581C10601970C8B201E000F0A6FA10BDF8B5061C0F1C141CD518AC4208D02178301C3A1CFFF7DFFF0134431CF5D100E00020BA
:40150000F8BD0000F0B59FB0061C0F1C03920593002804D08169002901D100F059FC754B9F4201D1776808E0734B9F4201D1B76803E0724B9F4200D1F768BB891A070AD5A3
:401540003B69002B07D006AD00236B6120236B763023AB763BE0301C391C00F0BDFA0028F1D001204042C2E0059A111D12680591002A76DB0992013423782E2B00D181E0AC
:4015800021785F48032200F0E3FC002807D05C492A68431A402098401043286001342178631C584806220393297600F0D1FC002800D18AE0544B002B7ED1059B07220733CB
:4015C0009343083305936A69049953186B61039C2378002B04D10399611A029110D003E0252BF8D00134F3E7301C391C039A029BFFF775FF013075D06A69029953186B616D
:401600002378002B6ED0012252426A606A4600235B3201342B60EB60AB601370AB6521783A48052200F094FC002808D0374A0134831A012098402B6818432860EFE72B682F
:40164000D90603D56A4620215B3211701A0703D56A462B215B32117022782A2A84D0099B05E05242EA60022213432B6083E72278303A092A04D80A214B4301349B18F6E708
:40168000099379E763782A2B09D1059B02341A1D1B680592002B0DDA01235B420AE0013400232278303A092A04D80A214B4301349B18F6E7079363E705AB0093301C291C9F
:4016C0003A1C134B00E000BF07E005AB0093301C291C3A1C0E4B00F091F804900499013100D070E7BB895A0600D53AE70B981FB0F0BDC046FC2400001C2500003C250000A9
:40170000CE240000D224000000000000C8240000DF140000F7B5151C01930A698B68061C0C1C934200DA131C221C2B6043321278002A01D001332B602068800602D52B68E9
:4017400002332B60216806270F401FD0231C43331B785A1E9341226892061FD5E11840313020C870211C5A1C45310978A21840320233D17012E0221C301C01991932012348
:40178000089FB847013011D0009F01370097E0682968009F431A9F42EDDBD7E7221C301C01994332089FB847013002D10120404223E0206806212B68E268014000250429BF
:4017C00003D1D51AEB43DB171D40A26823699A4201DDD31AED1800270097009FAF420BDA221C301C01991A320123089FB8470130DCD0009F0137EFE70020FEBDF0B50D1CC7
:401800008BB0433506920590079304950B7E0C1C109A6E2B00D1A7E011D8632B22D009D8002B00D1B0E0582B00D0C0E045310B707B4D4EE0642B1CD0692B1AD0B7E0732B6B
:4018400000D1A5E009D86F2B29D0702B00D0AEE00E68202333430B6036E0752B1FD0782B32D0A4E013680D1C191D423511601B689FE0216813680E0603D5191D11601E685C
:4018800005E04806F9D5191D116000215E5E644B002E3BDA049D2D2276422A7036E0216813680E0603D5191D11601E6804E04806F9D5191D1E881160594B227E03930827E6
:4018C0006F2A1ED00A271CE0231C78214533554D197011682368081D039510601E0601D50E6802E05806FBD50E88D90702D52022134323601027002E03D1226820239A43BD
:401900002260231C002243331A7001E003930A276368A360002B03DB2568042295432560002E02D1049D002B0ED0049D301C391CFFF79AFC0398013D435C301C2B70391C08
:40194000FFF74EFC061EF1D1082F09D12168C90706D5626823699A4202DC013D30232B70049E731B23612AE0086813684969050604D5181D10601B68196005E04606F8D5E2
:40198000181D10601B68198000232361049D16E01368191D11601D68281C00F0DFFB63682061984200D923612069606004E0251C42352B7001232361049E00233370079EBB
:4019C00005980096211C09AA069BFFF7A3FE013002D10120404221E02A1C059806992369079DA8470130F4D02668B60705D4099BE068984212DA181C10E00025E068099945
:401A0000431A9D42F3DA221C0598069919320123079EB0470130DCD00135EFE70BB0F0BDD9240000EA24000070B5051C0E1C141C002804D08269002A01D100F0C9F9234B19
:401A40009C4201D16C6808E0214B9C4201D1AC6803E0204B9C4200D1EC68A369A360A3891A070AD52369002B07D022682369F6B2D01A626990420FDB08E0281C211C00F028
:401A80002BF80028F1D0012040421DE0281C211C00F01EF90028F6D1A3680130013BA36023685A1C22601E706369984205D0A389301CDA0708D50A2E06D1281C211C00F046
:401AC00007F90028DFD1301C70BDC046FC2400001C2500003C250000344B70B51D68061C0C1C002D05D0A969002902D1281C00F06FF92F4B9C4201D16C6808E02D4B9C4272
:401B000001D1AC6803E02C4B9C4200D1EC68A28993B2190721D4D90605D40923336040231A43A2813FE05A0713D5616B002908D0231C4433994202D0301C00F015FA00237D
:401B40006363A38924229343A3810023636023692360A38908221343A381216900290BD1A389A02292001A4080239B009A4203D0301C211C00F09CF9A38901221A4005D08C
:401B800061690022A2604A42A26103E0990700D46269A26022690020824206D1190604D540221343A3810120404270BD44010020FC2400001C2500003C250000F7B58B89B3
:401BC000051C0C1C19075ED46268002A02DC276C002F1ADDE76A002F17D000222E682A60802252011A4001D0626D15E0281C216A0123B847021C411C0ED12B68002B0BD04D
:401C00001D2B01D0162B02D12E6000205EE0A38940210B43A38159E0A3895F0706D56168636B521A002B01D0276CD21B281C216A0023E76AB847A289411C06D12B68002B08
:401C400003D01D2B01D0162B19D10023636023692360D70405D5411C02D12A68002A00D16065616B2E600029CFD0231C4433994202D0281C00F078F90020606326E04023AB
:401C80001A43A28122E02669002EBED027680022BF1B01972660990700D16269A260019F002FB2DD281C216A321C019BA76AB847002806DCA389402213430120A381404294
:401CC00004E0019F36183F1A0197E8E7FEBD00000A6938B5051C0C1C002A01D100201CE0002804D08369002B01D100F071F80B4B9C4201D16C6808E0094B9C4201D1AC68BE
:401D000003E0084B9C4200D1EC680C22A35E002BE4D0281C211CFFF751FF38BDFC2400001C2500003C250000F8B5041C071C4834002C12D0A5686668013E0CD4AB89012B0A
:401D400007D90E22AB5E013303D0381C291CFFF7BFFF6835F0E72468EAE7F8BD002310B5041C03604360836081814366C281036143618361191C08225C30FFF70DFB054B6C
:401D800024626362044BA362044BE362044B236310BDC046C5200000ED200000252100005121000070B54B1E68255D430E1C291C743100F021F9041E08D0002101604660A3
:401DC0002A1C0C30A0606832FFF7E6FA201C70BD836913B5041C002B27D18364C3640365124B134A1B688262984201D101238361201C00F01FF86060201C00F01BF8A06004
:401E0000201C00F017F80421E06000226068FFF7A5FFA06809210122FFF7A0FFE06812210222FFF79BFF0123A36113BDC4240000291D0000F8B51D4B071C1E68B269002A3C
:401E400002D1301CFFF7C4FF4836B4687368013B05D40C22A55E002D10D06834F7E73368002B06D1381C0421FFF79CFF3060002801D03668E9E70C233B6016E001235B4229
:401E8000E381201C0123A38165662560A560656025616561A5615C30291C0822FFF77CFA6563A563A564E564201CF8BDC4240000F0B58B8991B0051C0C1C9A0725D40E235E
:401EC000C95E002906DAA78980231F400FD0002740260EE001AA00F06FF90028F3DB029BF0273F02184A1F40BF187B425F418026F600281C311C00F07FF800280CD1A3897E
:401F00009A051FD402221343A381231C4733236023610123636115E00C4B8022AB62A38920601343A38120616661002F0AD00E23E15E281C00F052F9002803D0A38901221E
:401F40001343A38111B0F0BD00E0FFFF291D0000C9B28218904204D003788B4202D00130F8E700207047000030B5002940D004390B68002B00DAC9181E4A1368141C002BA7
:401F800002D14B60116033E099420FD208680A189A4205D113685268C01808604A6000E04B60216024E08A4203D8131C5A68002AF9D11D685C198C420BD10968691858185E
:401FC0001960904214D114685268091919605A600EE08C4202D90C23036009E008680C18944203D114685268001908604A60596030BDC0467401002070B50323CD1C9D4320
:402000000835061C0C2D01D20C2501E0002D3FDB8D423DD3204B1C681A1C211C002913D00868431B0DD40B2B02D90B60CC181EE08C4202D1636813601AE0486860600C1C11
:4020400016E00C1C4968E9E7144C2068002803D1301C00F025F82060301C291C00F020F8431C15D0C41C03239C4384420AD12560201C0B300722231D9043C31A0BD05A4215
:40208000E25008E0211A301C00F00AF80130EED10C233360002070BD740100207001002038B5074C0023051C081C2360FEF7A0FA431C03D12368002B00D02B6038BDC0466F
:4020C0008001002038B50C1C0E25495F00F0ACF8002803DB626D1318636503E0A289024B1340A38138BDC046FFEFFFFFF8B51E1C8B89051C0C1C171CDA0505D50E23C95EB2
:402100000022022300F07CF8A289054B281C1340A3810E22A15E331C3A1C00F027F8F8BDFFEFFFFF38B50C1C0E25495F00F068F8A389421C03D1054A1340A38104E0802250
:4021400052011343A381606538BDC046FFEFFFFF08B50E23C95E00F01DF808BD0023C25C0133002AFBD1581E7047000038B5084C051C00202060081C111C1A1CFEF718FADF
:40218000431C03D12368002B00D02B6038BDC0468001002038B5074C0023051C081C236000F056F8431C03D12368002B00D02B6038BDC0468001002038B5074C0023051C72
:4021C000081C111C236000F04BF8431C03D12368002B00D02B6038BD8001002038B5074C0023051C081C236000F042F8431C03D12368002B00D02B6038BDC04680010020C9
:4022000038B5084C051C00202060081C111C1A1C00F036F8431C03D12368002B00D02B6038BDC0468001002038B5084C051C00202060081C111C1A1C00F02AF8431C03D149
:402240002368002B00D02B6038BDC04680010020024B5822012040421A60704780010020024B5822012040421A60704780010020024B582200201A607047C046800100207A
:40228000024B5822012040421A60704780010020024B5822012040421A607047800100200000000028040000BE030000D2030000E6030000FA0300000E040000706C65614A
:4022C000736520696E707574206C6564207479706520616E642070776D20647574793A200D000000475245454E206C65642070776D20647574792069733A202564200D0A35
:4023000000000000524544206C65642070776D20647574792069733A202564200D0A00004952206C65642070776D20647574792069733A202564200D0A0000004E49522094
:402340006C65642070776D20647574792069733A202564200D0A00000400000000300F40000400400F40000441300F4020310F401D320F4012330F4007400F4005410F40E1
:4023800002600F4007021201130323013501360137024010410545504721483249FF4AFF4BFF4DA04F0450185280580459045A045B045F01604062C06440654066C068C0DF
:4023C0006AC06CC06EC09E04AA01AE07B004B201B402C020C105C510C602C705C816C9FFCAFFCBFFCDA0CF04D018D280D804DA04DB04DF01E040E2C0E440E540E6C0E8C0A6
:40240000EAC0ECC0EEC009020F021608178018011C401D201F082002230429013102380840014520480249014F82500656085740710277808801C288C4C0CA01CC01CE0289
:40244000D028D218E2801A012E03300134024020410545014602480549FF4AFF4BFF4DA04F045018528058045A045B045F01604062C06440654066C068C06AC06CC06EC039
:402480000F0817801D201F0145204F88574077808F01B30CB440C240C480D020D210E240EA60EE2051015280550257808A80D4E0D62063088F04B103B780D8400101100158
:4024C00043000000E4000020232D302B2000686C4C0065666745464700303132333435363738394142434445460030313233343536373839616263646566000000000000A2
:40250000000000000000000000000000000000000000000000000000000000000000000000000000000000000000000000000000000000000000000000000000000000009B
:4025400000000000000000000000000000000000000000000000000000000000F8B5C046F8BC08BC9E46704771030000DD060000F8B5C046F8BC08BC9E467047490300002C
:4025800090250000C800002080000000400000000000000088010020C0F1FF0F006CDC0280BB0000300000000000C05D00000000FC2400001C2500003C25000000000000C2
:4025C000000000000000000000000000C0240000000000000000000000000000000000000000000000000000000000000000000000000000000000000000000000000000F7
:40260000000000000000000000000000E400002000000000000000000000000000000000000000000000000000000000000000000000000000000000000000000000000096
:40264000000000000000000000000000000000000000000000000000000000000000000000000000000000000000000000000000000000000000000000000000000000005A
:40268000000000000000000000000000000000000000000000000000000000000000000000000000000000000000000000000000000000000000000000000000000000001A
:4026C00000000000000000000000000000000000000000000000000000000000000000000000000000000000000000000000000000000000000000000000000000000000DA
:402700000000000000000000000000000000000000000000000000000000000000000000000000000000000000000000000000000000000000000000000000000000000099
:020000040001F9
:0200000490303A
:020000007A2460
:0200000490402A
:4000000000000000000000000000000000000000000000000000000000000000000000000000000000000000000000000000000000000000000000000000000000000000C0
:400040000000000000000000000000000000000000000000000000000000000000000000000000000000000000000000000000000000000000000000000000000000000080
:0200000490501A
:0C00000000020E34119E00010E408BC265
:0200000490600A
:0100000001FE
:00000001FF